{
  "abi": [
    {
      "anonymous": false,
      "inputs": [
        {
          "indexed": false,
          "internalType": "address",
          "name": "",
          "type": "address"
        },
        {
          "indexed": false,
          "internalType": "address",
          "name": "",
          "type": "address"
        },
        {
          "indexed": false,
          "internalType": "bool",
          "name": "",
          "type": "bool"
        }
      ],
      "name": "Approve",
      "type": "event"
    },
    {
      "anonymous": false,
      "inputs": [
        {
          "indexed": false,
          "internalType": "address",
          "name": "",
          "type": "address"
        },
        {
          "indexed": false,
          "internalType": "bytes32",
          "name": "",
          "type": "bytes32"
        }
      ],
      "name": "Book",
      "type": "event"
    },
    {
      "anonymous": false,
      "inputs": [
        {
          "indexed": false,
          "internalType": "address",
          "name": "",
          "type": "address"
        },
        {
          "indexed": false,
          "internalType": "address",
          "name": "",
          "type": "address"
        },
        {
          "indexed": false,
          "internalType": "bytes32",
          "name": "",
          "type": "bytes32"
        }
      ],
      "name": "BookFor",
      "type": "event"
    },
    {
      "anonymous": false,
      "inputs": [
        {
          "indexed": false,
          "internalType": "address",
          "name": "",
          "type": "address"
        },
        {
          "indexed": false,
          "internalType": "uint256",
          "name": "",
          "type": "uint256"
        }
      ],
      "name": "Leave",
      "type": "event"
    },
    {
      "anonymous": false,
      "inputs": [
        {
          "indexed": false,
          "internalType": "address",
          "name": "",
          "type": "address"
        },
        {
          "indexed": false,
          "internalType": "address",
          "name": "",
          "type": "address"
        },
        {
          "indexed": false,
          "internalType": "uint256",
          "name": "",
          "type": "uint256"
        }
      ],
      "name": "Lock",
      "type": "event"
    },
    {
      "anonymous": false,
      "inputs": [
        {
          "indexed": false,
          "internalType": "address",
          "name": "",
          "type": "address"
        },
        {
          "indexed": false,
          "internalType": "address",
          "name": "",
          "type": "address"
        },
        {
          "indexed": false,
          "internalType": "bool",
          "name": "",
          "type": "bool"
        }
      ],
      "name": "Revoke",
      "type": "event"
    },
    {
      "anonymous": false,
      "inputs": [
        {
          "indexed": false,
          "internalType": "address",
          "name": "",
          "type": "address"
        },
        {
          "indexed": false,
          "internalType": "address",
          "name": "",
          "type": "address"
        },
        {
          "indexed": false,
          "internalType": "uint256",
          "name": "",
          "type": "uint256"
        }
      ],
      "name": "Unlock",
      "type": "event"
    },
    {
      "inputs": [
        {
          "internalType": "address",
          "name": "_address",
          "type": "address"
        }
      ],
      "name": "approve",
      "outputs": [],
      "stateMutability": "nonpayable",
      "type": "function"
    },
    {
      "inputs": [
        {
          "internalType": "string",
          "name": "_password",
          "type": "string"
        }
      ],
      "name": "book",
      "outputs": [],
      "stateMutability": "payable",
      "type": "function"
    },
    {
      "inputs": [
        {
          "internalType": "address",
          "name": "_address",
          "type": "address"
        },
        {
          "internalType": "string",
          "name": "_password",
          "type": "string"
        }
      ],
      "name": "bookFor",
      "outputs": [],
      "stateMutability": "payable",
      "type": "function"
    },
    {
      "inputs": [
        {
          "internalType": "address",
          "name": "_address",
          "type": "address"
        }
      ],
      "name": "leave",
      "outputs": [],
      "stateMutability": "nonpayable",
      "type": "function"
    },
    {
      "inputs": [
        {
          "internalType": "address",
          "name": "_address",
          "type": "address"
        }
      ],
      "name": "lock",
      "outputs": [],
      "stateMutability": "nonpayable",
      "type": "function"
    },
    {
      "inputs": [
        {
          "internalType": "address",
          "name": "_address",
          "type": "address"
        }
      ],
      "name": "revoke",
      "outputs": [],
      "stateMutability": "nonpayable",
      "type": "function"
    },
    {
      "inputs": [
        {
          "internalType": "address",
          "name": "_address",
          "type": "address"
        },
        {
          "internalType": "string",
          "name": "_key",
          "type": "string"
        }
      ],
      "name": "unlock",
      "outputs": [],
      "stateMutability": "nonpayable",
      "type": "function"
    },
    {
      "inputs": [
        {
          "internalType": "address",
          "name": "_address",
          "type": "address"
        }
      ],
      "name": "viewOwner",
      "outputs": [
        {
          "internalType": "address",
          "name": "",
          "type": "address"
        }
      ],
      "stateMutability": "view",
      "type": "function"
    }
  ],
  "bytecode": "608060405234801561001057600080fd5b50610dfc806100206000396000f3fe60806040526004361061007b5760003560e01c8063c94091481161004e578063c9409148146100f5578063daea85c514610131578063e2d3edd014610151578063f435f5a71461016457600080fd5b80633ead71cb1461008057806374a8f103146100a257806374ca6e2d146100c2578063bedf77a6146100d5575b600080fd5b34801561008c57600080fd5b506100a061009b366004610cae565b610184565b005b3480156100ae57600080fd5b506100a06100bd366004610cfc565b61031d565b6100a06100d0366004610d17565b610457565b3480156100e157600080fd5b506100a06100f0366004610cfc565b6105dd565b34801561010157600080fd5b50610115610110366004610cfc565b6106e9565b6040516001600160a01b03909116815260200160405180910390f35b34801561013d57600080fd5b506100a061014c366004610cfc565b610775565b6100a061015f366004610cae565b6108ae565b34801561017057600080fd5b506100a061017f366004610cfc565b610a7c565b336101aa5760405162461bcd60e51b81526004016101a190610d54565b60405180910390fd5b6101b382610b7f565b6101ea5760405162461bcd60e51b81526020600482015260086024820152670848109bdbdad95960c21b60448201526064016101a1565b6101f382610b9f565b61022d5760405162461bcd60e51b815260206004820152600b60248201526a084814195c9b5a5d1d195960aa1b60448201526064016101a1565b805161024b5760405162461bcd60e51b81526004016101a190610d77565b80516020808301919091206001600160a01b03841660009081529182905260409091206002015481146102ad5760405162461bcd60e51b815260206004820152600a602482015269084814185cdcdddbdc9960b21b60448201526064016101a1565b6001600160a01b03831660008181526020818152604091829020600301805460ff1916600117905581513381529081019290925242908201819052907fc1c90b8e0705b212262c0dbd7580efe1862c2f185bf96899226f7596beb2db09906060015b60405180910390a150505050565b3361033a5760405162461bcd60e51b81526004016101a190610d54565b61034333610b7f565b61035f5760405162461bcd60e51b81526004016101a190610da5565b6001600160a01b0381166103855760405162461bcd60e51b81526004016101a190610d54565b3360009081526001602090815260408083206001600160a01b038516845290915290205460ff166103ea5760405162461bcd60e51b815260206004820152600f60248201526e105b1c9958591e481c995d9bdad959608a1b60448201526064016101a1565b3360008181526001602090815260408083206001600160a01b038616808552908352818420805460ff191690558151948552918401919091528201527fb10892907d1785e9c412fba4152a8282bcbb3a1b8e71701036c341cf9d5704ae906060015b60405180910390a150565b336104745760405162461bcd60e51b81526004016101a190610d54565b61047d33610b7f565b156104bd5760405162461bcd60e51b815260206004820152601060248201526f2cb7ba903430bb329030903937b7b69760811b60448201526064016101a1565b80516104db5760405162461bcd60e51b81526004016101a190610d77565b652d79883d20003410156105285760405162461bcd60e51b81526020600482015260146024820152735072696365203e3d2035302c303030206777656960601b60448201526064016101a1565b805160208083019190912060408051608081018252338082523482860190815282840185815260006060850181815284825281895290869020855181546001600160a01b0319166001600160a01b039091161781559251600184015590516002830155516003909101805460ff1916911515919091179055825190815293840183905291927fba49a8318d072c8e8dc370612e44c40798bf6df880b71878a5c0fd0aea854eed910160405180910390a1505050565b336105fa5760405162461bcd60e51b81526004016101a190610d54565b61060333610b7f565b61061f5760405162461bcd60e51b81526004016101a190610da5565b6001600160a01b038181166000908152602081905260409020541633146106725760405162461bcd60e51b8152602060048201526007602482015266084813dddb995960ca1b60448201526064016101a1565b3360008181526020818152604080832080546001600160a01b03191681556001810184905560028101939093556003909201805460ff19169055815192835242908301819052917f61a26f7c17d8780c095ccfa67e689a13ee4e06ddce3da18956369f4a396100e891015b60405180910390a15050565b6000336107085760405162461bcd60e51b81526004016101a190610d54565b6001600160a01b03821661072e5760405162461bcd60e51b81526004016101a190610d54565b61073782610b7f565b6107535760405162461bcd60e51b81526004016101a190610da5565b506001600160a01b03808216600090815260208190526040902054165b919050565b336107925760405162461bcd60e51b81526004016101a190610d54565b61079b33610b7f565b6107b75760405162461bcd60e51b81526004016101a190610da5565b6001600160a01b0381166107dd5760405162461bcd60e51b81526004016101a190610d54565b3360009081526001602090815260408083206001600160a01b038516845290915290205460ff16156108445760405162461bcd60e51b815260206004820152601060248201526f105b1c9958591e48185c1c1c9bdd995960821b60448201526064016101a1565b3360008181526001602081815260408084206001600160a01b03871680865290835293819020805460ff191684179055805194855290840192909252908201527faaf27816598688732a80b26fb3b6d0bc241c08f38a6d8ca2a0723f4835d593d69060600161044c565b336108cb5760405162461bcd60e51b81526004016101a190610d54565b6001600160a01b0382166109115760405162461bcd60e51b815260206004820152600d60248201526c2120466f72204164647265737360981b60448201526064016101a1565b61091a82610b7f565b1561095a5760405162461bcd60e51b815260206004820152601060248201526f2cb7ba903430bb329030903937b7b69760811b60448201526064016101a1565b80516109785760405162461bcd60e51b81526004016101a190610d77565b652d79883d20003410156109c55760405162461bcd60e51b81526020600482015260146024820152735072696365203e3d2035302c303030206777656960601b60448201526064016101a1565b8051602080830191909120604080516080810182526001600160a01b038681168083523483870190815283850186815260006060808701828152858352828b5291889020875181546001600160a01b03191697169690961786559251600186015590516002850155516003909301805460ff19169315159390931790925583513381529586015291840183905291927f91226c3460ae6c8efea379cb28ba0d3c10b90ed7104c7df82f1a8617b6278857910161030f565b33610a995760405162461bcd60e51b81526004016101a190610d54565b610aa281610b7f565b610ad95760405162461bcd60e51b81526020600482015260086024820152670848109bdbdad95960c21b60448201526064016101a1565b610ae281610b9f565b610b1c5760405162461bcd60e51b815260206004820152600b60248201526a084814195c9b5a5d1d195960aa1b60448201526064016101a1565b6001600160a01b03811660008181526020818152604091829020600301805460ff1916905581513381529081019290925242908201819052907fec36c0364d931187a76cf66d7eee08fad0ec2e8b7458a8d8b26b36769d4d13f3906060016106dd565b6001600160a01b0390811660009081526020819052604090205416151590565b6001600160a01b0380821660009081526020819052604081205490911633811480610bed57506001600160a01b038316600090815260016020908152604080832033845290915290205460ff165b9392505050565b80356001600160a01b038116811461077057600080fd5b634e487b7160e01b600052604160045260246000fd5b600082601f830112610c3257600080fd5b813567ffffffffffffffff80821115610c4d57610c4d610c0b565b604051601f8301601f19908116603f01168101908282118183101715610c7557610c75610c0b565b81604052838152866020858801011115610c8e57600080fd5b836020870160208301376000602085830101528094505050505092915050565b60008060408385031215610cc157600080fd5b610cca83610bf4565b9150602083013567ffffffffffffffff811115610ce657600080fd5b610cf285828601610c21565b9150509250929050565b600060208284031215610d0e57600080fd5b610bed82610bf4565b600060208284031215610d2957600080fd5b813567ffffffffffffffff811115610d4057600080fd5b610d4c84828501610c21565b949350505050565b60208082526009908201526821204164647265737360b81b604082015260600190565b602080825260149082015273050617373776f7264206c656e677468203d3d20360641b604082015260600190565b60208082526007908201526610902937b7b69760c91b60408201526060019056fea26469706673582212203f4f6d90c01ad87c0fb70f118f17db8a4afceaa7fb539bcdcbbb8c03f299028664736f6c634300080c0033",
  "bytecodeSha1": "5155fa34e9b6aaff9e4fc9c79162d435bac81663",
  "compiler": {
    "evm_version": "istanbul",
    "optimizer": {
      "enabled": true,
      "runs": 200
    },
    "version": "0.8.12+commit.f00d7308"
  },
  "contractName": "HAV",
  "language": "Solidity",
  "natspec": {
    "kind": "dev",
    "methods": {},
    "version": 1
  },
  "opcodes": "PUSH1 0x80 PUSH1 0x40 MSTORE PUSH1 0x4 CALLDATASIZE LT PUSH2 0x7B JUMPI PUSH1 0x0 CALLDATALOAD PUSH1 0xE0 SHR DUP1 PUSH4 0xC9409148 GT PUSH2 0x4E JUMPI DUP1 PUSH4 0xC9409148 EQ PUSH2 0xF5 JUMPI DUP1 PUSH4 0xDAEA85C5 EQ PUSH2 0x131 JUMPI DUP1 PUSH4 0xE2D3EDD0 EQ PUSH2 0x151 JUMPI DUP1 PUSH4 0xF435F5A7 EQ PUSH2 0x164 JUMPI PUSH1 0x0 DUP1 REVERT JUMPDEST DUP1 PUSH4 0x3EAD71CB EQ PUSH2 0x80 JUMPI DUP1 PUSH4 0x74A8F103 EQ PUSH2 0xA2 JUMPI DUP1 PUSH4 0x74CA6E2D EQ PUSH2 0xC2 JUMPI DUP1 PUSH4 0xBEDF77A6 EQ PUSH2 0xD5 JUMPI JUMPDEST PUSH1 0x0 DUP1 REVERT JUMPDEST CALLVALUE DUP1 ISZERO PUSH2 0x8C JUMPI PUSH1 0x0 DUP1 REVERT JUMPDEST POP PUSH2 0xA0 PUSH2 0x9B CALLDATASIZE PUSH1 0x4 PUSH2 0xCAE JUMP JUMPDEST PUSH2 0x184 JUMP JUMPDEST STOP JUMPDEST CALLVALUE DUP1 ISZERO PUSH2 0xAE JUMPI PUSH1 0x0 DUP1 REVERT JUMPDEST POP PUSH2 0xA0 PUSH2 0xBD CALLDATASIZE PUSH1 0x4 PUSH2 0xCFC JUMP JUMPDEST PUSH2 0x31D JUMP JUMPDEST PUSH2 0xA0 PUSH2 0xD0 CALLDATASIZE PUSH1 0x4 PUSH2 0xD17 JUMP JUMPDEST PUSH2 0x457 JUMP JUMPDEST CALLVALUE DUP1 ISZERO PUSH2 0xE1 JUMPI PUSH1 0x0 DUP1 REVERT JUMPDEST POP PUSH2 0xA0 PUSH2 0xF0 CALLDATASIZE PUSH1 0x4 PUSH2 0xCFC JUMP JUMPDEST PUSH2 0x5DD JUMP JUMPDEST CALLVALUE DUP1 ISZERO PUSH2 0x101 JUMPI PUSH1 0x0 DUP1 REVERT JUMPDEST POP PUSH2 0x115 PUSH2 0x110 CALLDATASIZE PUSH1 0x4 PUSH2 0xCFC JUMP JUMPDEST PUSH2 0x6E9 JUMP JUMPDEST PUSH1 0x40 MLOAD PUSH1 0x1 PUSH1 0x1 PUSH1 0xA0 SHL SUB SWAP1 SWAP2 AND DUP2 MSTORE PUSH1 0x20 ADD PUSH1 0x40 MLOAD DUP1 SWAP2 SUB SWAP1 RETURN JUMPDEST CALLVALUE DUP1 ISZERO PUSH2 0x13D JUMPI PUSH1 0x0 DUP1 REVERT JUMPDEST POP PUSH2 0xA0 PUSH2 0x14C CALLDATASIZE PUSH1 0x4 PUSH2 0xCFC JUMP JUMPDEST PUSH2 0x775 JUMP JUMPDEST PUSH2 0xA0 PUSH2 0x15F CALLDATASIZE PUSH1 0x4 PUSH2 0xCAE JUMP JUMPDEST PUSH2 0x8AE JUMP JUMPDEST CALLVALUE DUP1 ISZERO PUSH2 0x170 JUMPI PUSH1 0x0 DUP1 REVERT JUMPDEST POP PUSH2 0xA0 PUSH2 0x17F CALLDATASIZE PUSH1 0x4 PUSH2 0xCFC JUMP JUMPDEST PUSH2 0xA7C JUMP JUMPDEST CALLER PUSH2 0x1AA JUMPI PUSH1 0x40 MLOAD PUSH3 0x461BCD PUSH1 0xE5 SHL DUP2 MSTORE PUSH1 0x4 ADD PUSH2 0x1A1 SWAP1 PUSH2 0xD54 JUMP JUMPDEST PUSH1 0x40 MLOAD DUP1 SWAP2 SUB SWAP1 REVERT JUMPDEST PUSH2 0x1B3 DUP3 PUSH2 0xB7F JUMP JUMPDEST PUSH2 0x1EA JUMPI PUSH1 0x40 MLOAD PUSH3 0x461BCD PUSH1 0xE5 SHL DUP2 MSTORE PUSH1 0x20 PUSH1 0x4 DUP3 ADD MSTORE PUSH1 0x8 PUSH1 0x24 DUP3 ADD MSTORE PUSH8 0x848109BDBDAD959 PUSH1 0xC2 SHL PUSH1 0x44 DUP3 ADD MSTORE PUSH1 0x64 ADD PUSH2 0x1A1 JUMP JUMPDEST PUSH2 0x1F3 DUP3 PUSH2 0xB9F JUMP JUMPDEST PUSH2 0x22D JUMPI PUSH1 0x40 MLOAD PUSH3 0x461BCD PUSH1 0xE5 SHL DUP2 MSTORE PUSH1 0x20 PUSH1 0x4 DUP3 ADD MSTORE PUSH1 0xB PUSH1 0x24 DUP3 ADD MSTORE PUSH11 0x84814195C9B5A5D1D1959 PUSH1 0xAA SHL PUSH1 0x44 DUP3 ADD MSTORE PUSH1 0x64 ADD PUSH2 0x1A1 JUMP JUMPDEST DUP1 MLOAD PUSH2 0x24B JUMPI PUSH1 0x40 MLOAD PUSH3 0x461BCD PUSH1 0xE5 SHL DUP2 MSTORE PUSH1 0x4 ADD PUSH2 0x1A1 SWAP1 PUSH2 0xD77 JUMP JUMPDEST DUP1 MLOAD PUSH1 0x20 DUP1 DUP4 ADD SWAP2 SWAP1 SWAP2 KECCAK256 PUSH1 0x1 PUSH1 0x1 PUSH1 0xA0 SHL SUB DUP5 AND PUSH1 0x0 SWAP1 DUP2 MSTORE SWAP2 DUP3 SWAP1 MSTORE PUSH1 0x40 SWAP1 SWAP2 KECCAK256 PUSH1 0x2 ADD SLOAD DUP2 EQ PUSH2 0x2AD JUMPI PUSH1 0x40 MLOAD PUSH3 0x461BCD PUSH1 0xE5 SHL DUP2 MSTORE PUSH1 0x20 PUSH1 0x4 DUP3 ADD MSTORE PUSH1 0xA PUSH1 0x24 DUP3 ADD MSTORE PUSH10 0x84814185CDCDDDBDC99 PUSH1 0xB2 SHL PUSH1 0x44 DUP3 ADD MSTORE PUSH1 0x64 ADD PUSH2 0x1A1 JUMP JUMPDEST PUSH1 0x1 PUSH1 0x1 PUSH1 0xA0 SHL SUB DUP4 AND PUSH1 0x0 DUP2 DUP2 MSTORE PUSH1 0x20 DUP2 DUP2 MSTORE PUSH1 0x40 SWAP2 DUP3 SWAP1 KECCAK256 PUSH1 0x3 ADD DUP1 SLOAD PUSH1 0xFF NOT AND PUSH1 0x1 OR SWAP1 SSTORE DUP2 MLOAD CALLER DUP2 MSTORE SWAP1 DUP2 ADD SWAP3 SWAP1 SWAP3 MSTORE TIMESTAMP SWAP1 DUP3 ADD DUP2 SWAP1 MSTORE SWAP1 PUSH32 0xC1C90B8E0705B212262C0DBD7580EFE1862C2F185BF96899226F7596BEB2DB09 SWAP1 PUSH1 0x60 ADD JUMPDEST PUSH1 0x40 MLOAD DUP1 SWAP2 SUB SWAP1 LOG1 POP POP POP POP JUMP JUMPDEST CALLER PUSH2 0x33A JUMPI PUSH1 0x40 MLOAD PUSH3 0x461BCD PUSH1 0xE5 SHL DUP2 MSTORE PUSH1 0x4 ADD PUSH2 0x1A1 SWAP1 PUSH2 0xD54 JUMP JUMPDEST PUSH2 0x343 CALLER PUSH2 0xB7F JUMP JUMPDEST PUSH2 0x35F JUMPI PUSH1 0x40 MLOAD PUSH3 0x461BCD PUSH1 0xE5 SHL DUP2 MSTORE PUSH1 0x4 ADD PUSH2 0x1A1 SWAP1 PUSH2 0xDA5 JUMP JUMPDEST PUSH1 0x1 PUSH1 0x1 PUSH1 0xA0 SHL SUB DUP2 AND PUSH2 0x385 JUMPI PUSH1 0x40 MLOAD PUSH3 0x461BCD PUSH1 0xE5 SHL DUP2 MSTORE PUSH1 0x4 ADD PUSH2 0x1A1 SWAP1 PUSH2 0xD54 JUMP JUMPDEST CALLER PUSH1 0x0 SWAP1 DUP2 MSTORE PUSH1 0x1 PUSH1 0x20 SWAP1 DUP2 MSTORE PUSH1 0x40 DUP1 DUP4 KECCAK256 PUSH1 0x1 PUSH1 0x1 PUSH1 0xA0 SHL SUB DUP6 AND DUP5 MSTORE SWAP1 SWAP2 MSTORE SWAP1 KECCAK256 SLOAD PUSH1 0xFF AND PUSH2 0x3EA JUMPI PUSH1 0x40 MLOAD PUSH3 0x461BCD PUSH1 0xE5 SHL DUP2 MSTORE PUSH1 0x20 PUSH1 0x4 DUP3 ADD MSTORE PUSH1 0xF PUSH1 0x24 DUP3 ADD MSTORE PUSH15 0x105B1C9958591E481C995D9BDAD959 PUSH1 0x8A SHL PUSH1 0x44 DUP3 ADD MSTORE PUSH1 0x64 ADD PUSH2 0x1A1 JUMP JUMPDEST CALLER PUSH1 0x0 DUP2 DUP2 MSTORE PUSH1 0x1 PUSH1 0x20 SWAP1 DUP2 MSTORE PUSH1 0x40 DUP1 DUP4 KECCAK256 PUSH1 0x1 PUSH1 0x1 PUSH1 0xA0 SHL SUB DUP7 AND DUP1 DUP6 MSTORE SWAP1 DUP4 MSTORE DUP2 DUP5 KECCAK256 DUP1 SLOAD PUSH1 0xFF NOT AND SWAP1 SSTORE DUP2 MLOAD SWAP5 DUP6 MSTORE SWAP2 DUP5 ADD SWAP2 SWAP1 SWAP2 MSTORE DUP3 ADD MSTORE PUSH32 0xB10892907D1785E9C412FBA4152A8282BCBB3A1B8E71701036C341CF9D5704AE SWAP1 PUSH1 0x60 ADD JUMPDEST PUSH1 0x40 MLOAD DUP1 SWAP2 SUB SWAP1 LOG1 POP JUMP JUMPDEST CALLER PUSH2 0x474 JUMPI PUSH1 0x40 MLOAD PUSH3 0x461BCD PUSH1 0xE5 SHL DUP2 MSTORE PUSH1 0x4 ADD PUSH2 0x1A1 SWAP1 PUSH2 0xD54 JUMP JUMPDEST PUSH2 0x47D CALLER PUSH2 0xB7F JUMP JUMPDEST ISZERO PUSH2 0x4BD JUMPI PUSH1 0x40 MLOAD PUSH3 0x461BCD PUSH1 0xE5 SHL DUP2 MSTORE PUSH1 0x20 PUSH1 0x4 DUP3 ADD MSTORE PUSH1 0x10 PUSH1 0x24 DUP3 ADD MSTORE PUSH16 0x2CB7BA903430BB329030903937B7B697 PUSH1 0x81 SHL PUSH1 0x44 DUP3 ADD MSTORE PUSH1 0x64 ADD PUSH2 0x1A1 JUMP JUMPDEST DUP1 MLOAD PUSH2 0x4DB JUMPI PUSH1 0x40 MLOAD PUSH3 0x461BCD PUSH1 0xE5 SHL DUP2 MSTORE PUSH1 0x4 ADD PUSH2 0x1A1 SWAP1 PUSH2 0xD77 JUMP JUMPDEST PUSH6 0x2D79883D2000 CALLVALUE LT ISZERO PUSH2 0x528 JUMPI PUSH1 0x40 MLOAD PUSH3 0x461BCD PUSH1 0xE5 SHL DUP2 MSTORE PUSH1 0x20 PUSH1 0x4 DUP3 ADD MSTORE PUSH1 0x14 PUSH1 0x24 DUP3 ADD MSTORE PUSH20 0x5072696365203E3D2035302C3030302067776569 PUSH1 0x60 SHL PUSH1 0x44 DUP3 ADD MSTORE PUSH1 0x64 ADD PUSH2 0x1A1 JUMP JUMPDEST DUP1 MLOAD PUSH1 0x20 DUP1 DUP4 ADD SWAP2 SWAP1 SWAP2 KECCAK256 PUSH1 0x40 DUP1 MLOAD PUSH1 0x80 DUP2 ADD DUP3 MSTORE CALLER DUP1 DUP3 MSTORE CALLVALUE DUP3 DUP7 ADD SWAP1 DUP2 MSTORE DUP3 DUP5 ADD DUP6 DUP2 MSTORE PUSH1 0x0 PUSH1 0x60 DUP6 ADD DUP2 DUP2 MSTORE DUP5 DUP3 MSTORE DUP2 DUP10 MSTORE SWAP1 DUP7 SWAP1 KECCAK256 DUP6 MLOAD DUP2 SLOAD PUSH1 0x1 PUSH1 0x1 PUSH1 0xA0 SHL SUB NOT AND PUSH1 0x1 PUSH1 0x1 PUSH1 0xA0 SHL SUB SWAP1 SWAP2 AND OR DUP2 SSTORE SWAP3 MLOAD PUSH1 0x1 DUP5 ADD SSTORE SWAP1 MLOAD PUSH1 0x2 DUP4 ADD SSTORE MLOAD PUSH1 0x3 SWAP1 SWAP2 ADD DUP1 SLOAD PUSH1 0xFF NOT AND SWAP2 ISZERO ISZERO SWAP2 SWAP1 SWAP2 OR SWAP1 SSTORE DUP3 MLOAD SWAP1 DUP2 MSTORE SWAP4 DUP5 ADD DUP4 SWAP1 MSTORE SWAP2 SWAP3 PUSH32 0xBA49A8318D072C8E8DC370612E44C40798BF6DF880B71878A5C0FD0AEA854EED SWAP2 ADD PUSH1 0x40 MLOAD DUP1 SWAP2 SUB SWAP1 LOG1 POP POP POP JUMP JUMPDEST CALLER PUSH2 0x5FA JUMPI PUSH1 0x40 MLOAD PUSH3 0x461BCD PUSH1 0xE5 SHL DUP2 MSTORE PUSH1 0x4 ADD PUSH2 0x1A1 SWAP1 PUSH2 0xD54 JUMP JUMPDEST PUSH2 0x603 CALLER PUSH2 0xB7F JUMP JUMPDEST PUSH2 0x61F JUMPI PUSH1 0x40 MLOAD PUSH3 0x461BCD PUSH1 0xE5 SHL DUP2 MSTORE PUSH1 0x4 ADD PUSH2 0x1A1 SWAP1 PUSH2 0xDA5 JUMP JUMPDEST PUSH1 0x1 PUSH1 0x1 PUSH1 0xA0 SHL SUB DUP2 DUP2 AND PUSH1 0x0 SWAP1 DUP2 MSTORE PUSH1 0x20 DUP2 SWAP1 MSTORE PUSH1 0x40 SWAP1 KECCAK256 SLOAD AND CALLER EQ PUSH2 0x672 JUMPI PUSH1 0x40 MLOAD PUSH3 0x461BCD PUSH1 0xE5 SHL DUP2 MSTORE PUSH1 0x20 PUSH1 0x4 DUP3 ADD MSTORE PUSH1 0x7 PUSH1 0x24 DUP3 ADD MSTORE PUSH7 0x84813DDDB9959 PUSH1 0xCA SHL PUSH1 0x44 DUP3 ADD MSTORE PUSH1 0x64 ADD PUSH2 0x1A1 JUMP JUMPDEST CALLER PUSH1 0x0 DUP2 DUP2 MSTORE PUSH1 0x20 DUP2 DUP2 MSTORE PUSH1 0x40 DUP1 DUP4 KECCAK256 DUP1 SLOAD PUSH1 0x1 PUSH1 0x1 PUSH1 0xA0 SHL SUB NOT AND DUP2 SSTORE PUSH1 0x1 DUP2 ADD DUP5 SWAP1 SSTORE PUSH1 0x2 DUP2 ADD SWAP4 SWAP1 SWAP4 SSTORE PUSH1 0x3 SWAP1 SWAP3 ADD DUP1 SLOAD PUSH1 0xFF NOT AND SWAP1 SSTORE DUP2 MLOAD SWAP3 DUP4 MSTORE TIMESTAMP SWAP1 DUP4 ADD DUP2 SWAP1 MSTORE SWAP2 PUSH32 0x61A26F7C17D8780C095CCFA67E689A13EE4E06DDCE3DA18956369F4A396100E8 SWAP2 ADD JUMPDEST PUSH1 0x40 MLOAD DUP1 SWAP2 SUB SWAP1 LOG1 POP POP JUMP JUMPDEST PUSH1 0x0 CALLER PUSH2 0x708 JUMPI PUSH1 0x40 MLOAD PUSH3 0x461BCD PUSH1 0xE5 SHL DUP2 MSTORE PUSH1 0x4 ADD PUSH2 0x1A1 SWAP1 PUSH2 0xD54 JUMP JUMPDEST PUSH1 0x1 PUSH1 0x1 PUSH1 0xA0 SHL SUB DUP3 AND PUSH2 0x72E JUMPI PUSH1 0x40 MLOAD PUSH3 0x461BCD PUSH1 0xE5 SHL DUP2 MSTORE PUSH1 0x4 ADD PUSH2 0x1A1 SWAP1 PUSH2 0xD54 JUMP JUMPDEST PUSH2 0x737 DUP3 PUSH2 0xB7F JUMP JUMPDEST PUSH2 0x753 JUMPI PUSH1 0x40 MLOAD PUSH3 0x461BCD PUSH1 0xE5 SHL DUP2 MSTORE PUSH1 0x4 ADD PUSH2 0x1A1 SWAP1 PUSH2 0xDA5 JUMP JUMPDEST POP PUSH1 0x1 PUSH1 0x1 PUSH1 0xA0 SHL SUB DUP1 DUP3 AND PUSH1 0x0 SWAP1 DUP2 MSTORE PUSH1 0x20 DUP2 SWAP1 MSTORE PUSH1 0x40 SWAP1 KECCAK256 SLOAD AND JUMPDEST SWAP2 SWAP1 POP JUMP JUMPDEST CALLER PUSH2 0x792 JUMPI PUSH1 0x40 MLOAD PUSH3 0x461BCD PUSH1 0xE5 SHL DUP2 MSTORE PUSH1 0x4 ADD PUSH2 0x1A1 SWAP1 PUSH2 0xD54 JUMP JUMPDEST PUSH2 0x79B CALLER PUSH2 0xB7F JUMP JUMPDEST PUSH2 0x7B7 JUMPI PUSH1 0x40 MLOAD PUSH3 0x461BCD PUSH1 0xE5 SHL DUP2 MSTORE PUSH1 0x4 ADD PUSH2 0x1A1 SWAP1 PUSH2 0xDA5 JUMP JUMPDEST PUSH1 0x1 PUSH1 0x1 PUSH1 0xA0 SHL SUB DUP2 AND PUSH2 0x7DD JUMPI PUSH1 0x40 MLOAD PUSH3 0x461BCD PUSH1 0xE5 SHL DUP2 MSTORE PUSH1 0x4 ADD PUSH2 0x1A1 SWAP1 PUSH2 0xD54 JUMP JUMPDEST CALLER PUSH1 0x0 SWAP1 DUP2 MSTORE PUSH1 0x1 PUSH1 0x20 SWAP1 DUP2 MSTORE PUSH1 0x40 DUP1 DUP4 KECCAK256 PUSH1 0x1 PUSH1 0x1 PUSH1 0xA0 SHL SUB DUP6 AND DUP5 MSTORE SWAP1 SWAP2 MSTORE SWAP1 KECCAK256 SLOAD PUSH1 0xFF AND ISZERO PUSH2 0x844 JUMPI PUSH1 0x40 MLOAD PUSH3 0x461BCD PUSH1 0xE5 SHL DUP2 MSTORE PUSH1 0x20 PUSH1 0x4 DUP3 ADD MSTORE PUSH1 0x10 PUSH1 0x24 DUP3 ADD MSTORE PUSH16 0x105B1C9958591E48185C1C1C9BDD9959 PUSH1 0x82 SHL PUSH1 0x44 DUP3 ADD MSTORE PUSH1 0x64 ADD PUSH2 0x1A1 JUMP JUMPDEST CALLER PUSH1 0x0 DUP2 DUP2 MSTORE PUSH1 0x1 PUSH1 0x20 DUP2 DUP2 MSTORE PUSH1 0x40 DUP1 DUP5 KECCAK256 PUSH1 0x1 PUSH1 0x1 PUSH1 0xA0 SHL SUB DUP8 AND DUP1 DUP7 MSTORE SWAP1 DUP4 MSTORE SWAP4 DUP2 SWAP1 KECCAK256 DUP1 SLOAD PUSH1 0xFF NOT AND DUP5 OR SWAP1 SSTORE DUP1 MLOAD SWAP5 DUP6 MSTORE SWAP1 DUP5 ADD SWAP3 SWAP1 SWAP3 MSTORE SWAP1 DUP3 ADD MSTORE PUSH32 0xAAF27816598688732A80B26FB3B6D0BC241C08F38A6D8CA2A0723F4835D593D6 SWAP1 PUSH1 0x60 ADD PUSH2 0x44C JUMP JUMPDEST CALLER PUSH2 0x8CB JUMPI PUSH1 0x40 MLOAD PUSH3 0x461BCD PUSH1 0xE5 SHL DUP2 MSTORE PUSH1 0x4 ADD PUSH2 0x1A1 SWAP1 PUSH2 0xD54 JUMP JUMPDEST PUSH1 0x1 PUSH1 0x1 PUSH1 0xA0 SHL SUB DUP3 AND PUSH2 0x911 JUMPI PUSH1 0x40 MLOAD PUSH3 0x461BCD PUSH1 0xE5 SHL DUP2 MSTORE PUSH1 0x20 PUSH1 0x4 DUP3 ADD MSTORE PUSH1 0xD PUSH1 0x24 DUP3 ADD MSTORE PUSH13 0x2120466F722041646472657373 PUSH1 0x98 SHL PUSH1 0x44 DUP3 ADD MSTORE PUSH1 0x64 ADD PUSH2 0x1A1 JUMP JUMPDEST PUSH2 0x91A DUP3 PUSH2 0xB7F JUMP JUMPDEST ISZERO PUSH2 0x95A JUMPI PUSH1 0x40 MLOAD PUSH3 0x461BCD PUSH1 0xE5 SHL DUP2 MSTORE PUSH1 0x20 PUSH1 0x4 DUP3 ADD MSTORE PUSH1 0x10 PUSH1 0x24 DUP3 ADD MSTORE PUSH16 0x2CB7BA903430BB329030903937B7B697 PUSH1 0x81 SHL PUSH1 0x44 DUP3 ADD MSTORE PUSH1 0x64 ADD PUSH2 0x1A1 JUMP JUMPDEST DUP1 MLOAD PUSH2 0x978 JUMPI PUSH1 0x40 MLOAD PUSH3 0x461BCD PUSH1 0xE5 SHL DUP2 MSTORE PUSH1 0x4 ADD PUSH2 0x1A1 SWAP1 PUSH2 0xD77 JUMP JUMPDEST PUSH6 0x2D79883D2000 CALLVALUE LT ISZERO PUSH2 0x9C5 JUMPI PUSH1 0x40 MLOAD PUSH3 0x461BCD PUSH1 0xE5 SHL DUP2 MSTORE PUSH1 0x20 PUSH1 0x4 DUP3 ADD MSTORE PUSH1 0x14 PUSH1 0x24 DUP3 ADD MSTORE PUSH20 0x5072696365203E3D2035302C3030302067776569 PUSH1 0x60 SHL PUSH1 0x44 DUP3 ADD MSTORE PUSH1 0x64 ADD PUSH2 0x1A1 JUMP JUMPDEST DUP1 MLOAD PUSH1 0x20 DUP1 DUP4 ADD SWAP2 SWAP1 SWAP2 KECCAK256 PUSH1 0x40 DUP1 MLOAD PUSH1 0x80 DUP2 ADD DUP3 MSTORE PUSH1 0x1 PUSH1 0x1 PUSH1 0xA0 SHL SUB DUP7 DUP2 AND DUP1 DUP4 MSTORE CALLVALUE DUP4 DUP8 ADD SWAP1 DUP2 MSTORE DUP4 DUP6 ADD DUP7 DUP2 MSTORE PUSH1 0x0 PUSH1 0x60 DUP1 DUP8 ADD DUP3 DUP2 MSTORE DUP6 DUP4 MSTORE DUP3 DUP12 MSTORE SWAP2 DUP9 SWAP1 KECCAK256 DUP8 MLOAD DUP2 SLOAD PUSH1 0x1 PUSH1 0x1 PUSH1 0xA0 SHL SUB NOT AND SWAP8 AND SWAP7 SWAP1 SWAP7 OR DUP7 SSTORE SWAP3 MLOAD PUSH1 0x1 DUP7 ADD SSTORE SWAP1 MLOAD PUSH1 0x2 DUP6 ADD SSTORE MLOAD PUSH1 0x3 SWAP1 SWAP4 ADD DUP1 SLOAD PUSH1 0xFF NOT AND SWAP4 ISZERO ISZERO SWAP4 SWAP1 SWAP4 OR SWAP1 SWAP3 SSTORE DUP4 MLOAD CALLER DUP2 MSTORE SWAP6 DUP7 ADD MSTORE SWAP2 DUP5 ADD DUP4 SWAP1 MSTORE SWAP2 SWAP3 PUSH32 0x91226C3460AE6C8EFEA379CB28BA0D3C10B90ED7104C7DF82F1A8617B6278857 SWAP2 ADD PUSH2 0x30F JUMP JUMPDEST CALLER PUSH2 0xA99 JUMPI PUSH1 0x40 MLOAD PUSH3 0x461BCD PUSH1 0xE5 SHL DUP2 MSTORE PUSH1 0x4 ADD PUSH2 0x1A1 SWAP1 PUSH2 0xD54 JUMP JUMPDEST PUSH2 0xAA2 DUP2 PUSH2 0xB7F JUMP JUMPDEST PUSH2 0xAD9 JUMPI PUSH1 0x40 MLOAD PUSH3 0x461BCD PUSH1 0xE5 SHL DUP2 MSTORE PUSH1 0x20 PUSH1 0x4 DUP3 ADD MSTORE PUSH1 0x8 PUSH1 0x24 DUP3 ADD MSTORE PUSH8 0x848109BDBDAD959 PUSH1 0xC2 SHL PUSH1 0x44 DUP3 ADD MSTORE PUSH1 0x64 ADD PUSH2 0x1A1 JUMP JUMPDEST PUSH2 0xAE2 DUP2 PUSH2 0xB9F JUMP JUMPDEST PUSH2 0xB1C JUMPI PUSH1 0x40 MLOAD PUSH3 0x461BCD PUSH1 0xE5 SHL DUP2 MSTORE PUSH1 0x20 PUSH1 0x4 DUP3 ADD MSTORE PUSH1 0xB PUSH1 0x24 DUP3 ADD MSTORE PUSH11 0x84814195C9B5A5D1D1959 PUSH1 0xAA SHL PUSH1 0x44 DUP3 ADD MSTORE PUSH1 0x64 ADD PUSH2 0x1A1 JUMP JUMPDEST PUSH1 0x1 PUSH1 0x1 PUSH1 0xA0 SHL SUB DUP2 AND PUSH1 0x0 DUP2 DUP2 MSTORE PUSH1 0x20 DUP2 DUP2 MSTORE PUSH1 0x40 SWAP2 DUP3 SWAP1 KECCAK256 PUSH1 0x3 ADD DUP1 SLOAD PUSH1 0xFF NOT AND SWAP1 SSTORE DUP2 MLOAD CALLER DUP2 MSTORE SWAP1 DUP2 ADD SWAP3 SWAP1 SWAP3 MSTORE TIMESTAMP SWAP1 DUP3 ADD DUP2 SWAP1 MSTORE SWAP1 PUSH32 0xEC36C0364D931187A76CF66D7EEE08FAD0EC2E8B7458A8D8B26B36769D4D13F3 SWAP1 PUSH1 0x60 ADD PUSH2 0x6DD JUMP JUMPDEST PUSH1 0x1 PUSH1 0x1 PUSH1 0xA0 SHL SUB SWAP1 DUP2 AND PUSH1 0x0 SWAP1 DUP2 MSTORE PUSH1 0x20 DUP2 SWAP1 MSTORE PUSH1 0x40 SWAP1 KECCAK256 SLOAD AND ISZERO ISZERO SWAP1 JUMP JUMPDEST PUSH1 0x1 PUSH1 0x1 PUSH1 0xA0 SHL SUB DUP1 DUP3 AND PUSH1 0x0 SWAP1 DUP2 MSTORE PUSH1 0x20 DUP2 SWAP1 MSTORE PUSH1 0x40 DUP2 KECCAK256 SLOAD SWAP1 SWAP2 AND CALLER DUP2 EQ DUP1 PUSH2 0xBED JUMPI POP PUSH1 0x1 PUSH1 0x1 PUSH1 0xA0 SHL SUB DUP4 AND PUSH1 0x0 SWAP1 DUP2 MSTORE PUSH1 0x1 PUSH1 0x20 SWAP1 DUP2 MSTORE PUSH1 0x40 DUP1 DUP4 KECCAK256 CALLER DUP5 MSTORE SWAP1 SWAP2 MSTORE SWAP1 KECCAK256 SLOAD PUSH1 0xFF AND JUMPDEST SWAP4 SWAP3 POP POP POP JUMP JUMPDEST DUP1 CALLDATALOAD PUSH1 0x1 PUSH1 0x1 PUSH1 0xA0 SHL SUB DUP2 AND DUP2 EQ PUSH2 0x770 JUMPI PUSH1 0x0 DUP1 REVERT JUMPDEST PUSH4 0x4E487B71 PUSH1 0xE0 SHL PUSH1 0x0 MSTORE PUSH1 0x41 PUSH1 0x4 MSTORE PUSH1 0x24 PUSH1 0x0 REVERT JUMPDEST PUSH1 0x0 DUP3 PUSH1 0x1F DUP4 ADD SLT PUSH2 0xC32 JUMPI PUSH1 0x0 DUP1 REVERT JUMPDEST DUP2 CALLDATALOAD PUSH8 0xFFFFFFFFFFFFFFFF DUP1 DUP3 GT ISZERO PUSH2 0xC4D JUMPI PUSH2 0xC4D PUSH2 0xC0B JUMP JUMPDEST PUSH1 0x40 MLOAD PUSH1 0x1F DUP4 ADD PUSH1 0x1F NOT SWAP1 DUP2 AND PUSH1 0x3F ADD AND DUP2 ADD SWAP1 DUP3 DUP3 GT DUP2 DUP4 LT OR ISZERO PUSH2 0xC75 JUMPI PUSH2 0xC75 PUSH2 0xC0B JUMP JUMPDEST DUP2 PUSH1 0x40 MSTORE DUP4 DUP2 MSTORE DUP7 PUSH1 0x20 DUP6 DUP9 ADD ADD GT ISZERO PUSH2 0xC8E JUMPI PUSH1 0x0 DUP1 REVERT JUMPDEST DUP4 PUSH1 0x20 DUP8 ADD PUSH1 0x20 DUP4 ADD CALLDATACOPY PUSH1 0x0 PUSH1 0x20 DUP6 DUP4 ADD ADD MSTORE DUP1 SWAP5 POP POP POP POP POP SWAP3 SWAP2 POP POP JUMP JUMPDEST PUSH1 0x0 DUP1 PUSH1 0x40 DUP4 DUP6 SUB SLT ISZERO PUSH2 0xCC1 JUMPI PUSH1 0x0 DUP1 REVERT JUMPDEST PUSH2 0xCCA DUP4 PUSH2 0xBF4 JUMP JUMPDEST SWAP2 POP PUSH1 0x20 DUP4 ADD CALLDATALOAD PUSH8 0xFFFFFFFFFFFFFFFF DUP2 GT ISZERO PUSH2 0xCE6 JUMPI PUSH1 0x0 DUP1 REVERT JUMPDEST PUSH2 0xCF2 DUP6 DUP3 DUP7 ADD PUSH2 0xC21 JUMP JUMPDEST SWAP2 POP POP SWAP3 POP SWAP3 SWAP1 POP JUMP JUMPDEST PUSH1 0x0 PUSH1 0x20 DUP3 DUP5 SUB SLT ISZERO PUSH2 0xD0E JUMPI PUSH1 0x0 DUP1 REVERT JUMPDEST PUSH2 0xBED DUP3 PUSH2 0xBF4 JUMP JUMPDEST PUSH1 0x0 PUSH1 0x20 DUP3 DUP5 SUB SLT ISZERO PUSH2 0xD29 JUMPI PUSH1 0x0 DUP1 REVERT JUMPDEST DUP2 CALLDATALOAD PUSH8 0xFFFFFFFFFFFFFFFF DUP2 GT ISZERO PUSH2 0xD40 JUMPI PUSH1 0x0 DUP1 REVERT JUMPDEST PUSH2 0xD4C DUP5 DUP3 DUP6 ADD PUSH2 0xC21 JUMP JUMPDEST SWAP5 SWAP4 POP POP POP POP JUMP JUMPDEST PUSH1 0x20 DUP1 DUP3 MSTORE PUSH1 0x9 SWAP1 DUP3 ADD MSTORE PUSH9 0x212041646472657373 PUSH1 0xB8 SHL PUSH1 0x40 DUP3 ADD MSTORE PUSH1 0x60 ADD SWAP1 JUMP JUMPDEST PUSH1 0x20 DUP1 DUP3 MSTORE PUSH1 0x14 SWAP1 DUP3 ADD MSTORE PUSH20 0x50617373776F7264206C656E677468203D3D203 PUSH1 0x64 SHL PUSH1 0x40 DUP3 ADD MSTORE PUSH1 0x60 ADD SWAP1 JUMP JUMPDEST PUSH1 0x20 DUP1 DUP3 MSTORE PUSH1 0x7 SWAP1 DUP3 ADD MSTORE PUSH7 0x10902937B7B697 PUSH1 0xC9 SHL PUSH1 0x40 DUP3 ADD MSTORE PUSH1 0x60 ADD SWAP1 JUMP INVALID LOG2 PUSH5 0x6970667358 0x22 SLT KECCAK256 EXTCODEHASH 0x4F PUSH14 0x90C01AD87C0FB70F118F17DB8A4A 0xFC 0xEA 0xA7 0xFB MSTORE8 SWAP12 0xCD 0xCB 0xBB DUP13 SUB CALLCODE SWAP10 MUL DUP7 PUSH5 0x736F6C6343 STOP ADDMOD 0xC STOP CALLER ",
  "sha1": "57980e57f12813eb8a3ad0594714f94dd796bb9f",
  "source": "// SPDX-License-Identifier: MIT\npragma solidity >0.6.0;\n\n/*\n * @title: Hotel and vending Solidity smart contract.\n * @author: Anthony (fps) https://github.com/fps8k .\n * @dev: \n*/\n\ncontract HAV\n{\n    event Book(address, bytes32);\n    event BookFor(address, address, bytes32);\n    event Unlock(address, address, uint256);\n    event Lock(address, address, uint256);\n    event Approve(address, address, bool);\n    event Revoke(address, address, bool);\n    event Leave(address, uint256);\n\n\n    // Room attributes. Assuming that there are infinite rooms in the hotel all capped at 50,000 gwei flat.\n\n    struct Rooms\n    {\n        address occupant;\n        uint256 price;\n        bytes32 key;\n        bool door_open;\n    }\n\n\n    // Mappings.\n\n    mapping(address => Rooms) private guests;                           // Maps each user to a room.\n    mapping(address => mapping(address => bool)) private approvals;     // Allows one to allow a person or some people ability to their rooms.\n\n\n    // Modifiers and control functions.\n\n    modifier isValidSender()\n    {\n        require(msg.sender != address(0), \"! Address\");\n        _;\n    }\n\n\n    /*\n    * @dev:\n    *\n    * Makes sure the `_address` has a room already in the hotel.\n    */\n\n    function hasRoom(address _address) private view returns(bool)\n    {\n        return guests[_address].occupant != address(0);\n\n        // Returns true if the address has a room.\n    }\n\n\n    /*\n    * @dev:\n    *\n    * Checks if `_address` is allowed to access a room.\n    */\n\n    function isAllowed(address _address) private view returns(bool)\n    {\n        address owner = guests[_address].occupant;\n        return ((msg.sender == owner) || (approvals[_address][msg.sender]));\n\n        // Returns true if the `msg.sender` is the owner of the room -- OR -- the `msg.sender` is approved by the `_address`.\n    }\n    \n\n\n\n    /*\n    * @dev:\n    *\n    * Grants `msg.sender` access to a room and he sets his password.\n    * \n    */\n\n    function book(string memory _password) public payable isValidSender\n    {\n        require(!hasRoom(msg.sender), \"You have a room.\");                  // Makes sure the `msg.sender` has no room at the moment.\n        require(bytes(_password).length != 0, \"Password length == 0\");\n        require(msg.value >= 50_000 gwei, \"Price >= 50,000 gwei\");\n\n        bytes32 password = keccak256(bytes(_password));\n\n        Rooms memory room = Rooms(\n            msg.sender,\n            msg.value,\n            password,\n            false\n        );\n\n        guests[msg.sender] = room;\n\n        emit Book(msg.sender, password);\n    }\n\n\n\n\n    /*\n    * @dev:\n    *\n    * Grants `msg.sender` access to book a room for `_address` and he sets his password.\n    * \n    */\n\n    function bookFor(address _address, string memory _password) public payable isValidSender\n    {\n        require(_address != address(0), \"! For Address\");\n        require(!hasRoom(_address), \"You have a room.\");                  // Makes sure the `msg.sender` has no room at the moment.\n        require(bytes(_password).length != 0, \"Password length == 0\");\n        require(msg.value >= 50_000 gwei, \"Price >= 50,000 gwei\");\n\n        bytes32 password = keccak256(bytes(_password));\n\n        Rooms memory room = Rooms(\n            _address,\n            msg.value,\n            password,\n            false\n        );\n\n        guests[_address] = room;\n\n        emit BookFor(msg.sender, _address, password);\n    }\n\n\n\n\n    /*\n    * @dev:\n    *\n    * Unlocks your door.\n    * `msg.sender` must be approved or own the room.\n    */\n\n    function unlock(address _address, string memory _key) public isValidSender          // `_address` is the address of the room you want to access.\n    {\n        require(hasRoom(_address), \"! Booked\");\n        require(isAllowed(_address), \"! Permitted\");                                    // `_address` has allowed the `msg.sender` to unlock.\n        require(bytes(_key).length != 0, \"Password length == 0\");\n        bytes32 test_password = keccak256(bytes(_key));\n\n        require(test_password == guests[_address].key, \"! Password\");                   // Tests for the key and password.\n\n        uint256 unlock_time = block.timestamp;\n\n        guests[_address].door_open = true;\n\n        emit Unlock(msg.sender, _address, unlock_time);\n    }\n\n\n\n\n    /*\n    * @dev:\n    *\n    * Locks your door.\n    * `msg.sender` must be approved or own the room.\n    */\n\n    function lock(address _address) public isValidSender          // `_address` is the address of the room you want to access.\n    {\n        require(hasRoom(_address), \"! Booked\");\n        require(isAllowed(_address), \"! Permitted\");\n\n        uint256 lock_time = block.timestamp;\n\n        guests[_address].door_open = false;\n\n        emit Lock(msg.sender, _address, lock_time);\n    }\n\n\n\n\n    /*\n    * @dev: \n    * \n    * Approves `address` to access `msg.sender`'s room.\n    */\n\n    function approve(address _address) public isValidSender\n    {\n        require(hasRoom(msg.sender), \"! Room.\");                  // Makes sure the `msg.sender` has a room at the moment.   \n        require(_address != address(0), \"! Address\");\n\n        require(!approvals[msg.sender][_address], \"Already approved\");\n\n        approvals[msg.sender][_address] = true;\n\n        emit Approve(msg.sender, _address, true);\n    }\n\n\n\n\n    /*\n    * @dev: \n    * \n    * Revokes `address` to access `msg.sender`'s room.\n    */\n\n    function revoke(address _address) public isValidSender\n    {\n        require(hasRoom(msg.sender), \"! Room.\");                  // Makes sure the `msg.sender` has a room at the moment.   \n        require(_address != address(0), \"! Address\");\n\n        require(approvals[msg.sender][_address], \"Already revoked\");\n\n        approvals[msg.sender][_address] = false;\n\n        emit Revoke(msg.sender, _address, false);\n    }\n\n\n\n\n    /*\n    * @dev:\n    *\n    * Leave, says bye to the hotel.\n    */\n\n    function leave(address _address) public isValidSender\n    {\n        require(hasRoom(msg.sender), \"! Room.\");                  // Makes sure the `msg.sender` has no room at the moment.\n        require(msg.sender == guests[_address].occupant, \"! Owned\");\n        \n        uint256 left = block.timestamp;\n        delete guests[msg.sender];\n\n        emit Leave(msg.sender, left);\n    }\n\n\n\n\n    /*\n    * @dev:\n    *\n    * Sees the owner of the room\n    */\n\n    function viewOwner(address _address) public view isValidSender returns(address)\n    {\n        require(_address != address(0), \"! Address\");\n        require(hasRoom(_address), \"! Room.\");                  // Makes sure the `msg.sender` has no room at the moment.\n        \n        return guests[_address].occupant;\n    }\n\n}",
  "sourcePath": "contracts/HotelAndVending.sol",
  "type": "contract"
}